{
  "contractName": "PaymentProcessor",
  "abi": [
    {
      "inputs": [
        {
          "internalType": "address",
          "name": "adminAddress",
          "type": "address"
        },
        {
          "internalType": "address",
          "name": "ubiAddress",
          "type": "address"
        }
      ],
      "stateMutability": "nonpayable",
      "type": "constructor"
    },
    {
      "anonymous": false,
      "inputs": [
        {
          "indexed": false,
          "internalType": "address",
          "name": "payer",
          "type": "address"
        },
        {
          "indexed": false,
          "internalType": "uint256",
          "name": "amount",
          "type": "uint256"
        },
        {
          "indexed": false,
          "internalType": "uint256",
          "name": "paymentId",
          "type": "uint256"
        },
        {
          "indexed": false,
          "internalType": "uint256",
          "name": "date",
          "type": "uint256"
        }
      ],
      "name": "PaymentDone",
      "type": "event"
    },
    {
      "inputs": [],
      "name": "admin",
      "outputs": [
        {
          "internalType": "address",
          "name": "",
          "type": "address"
        }
      ],
      "stateMutability": "view",
      "type": "function",
      "constant": true
    },
    {
      "inputs": [],
      "name": "ubi",
      "outputs": [
        {
          "internalType": "contract IERC20",
          "name": "",
          "type": "address"
        }
      ],
      "stateMutability": "view",
      "type": "function",
      "constant": true
    },
    {
      "inputs": [
        {
          "internalType": "uint256",
          "name": "amount",
          "type": "uint256"
        },
        {
          "internalType": "uint256",
          "name": "paymentId",
          "type": "uint256"
        }
      ],
      "name": "pay",
      "outputs": [],
      "stateMutability": "nonpayable",
      "type": "function"
    }
  ],
  "bytecode": "0x608060405234801561001057600080fd5b5060405161059c38038061059c833981810160405281019061003291906100cf565b816000806101000a81548173ffffffffffffffffffffffffffffffffffffffff021916908373ffffffffffffffffffffffffffffffffffffffff16021790555080600160006101000a81548173ffffffffffffffffffffffffffffffffffffffff021916908373ffffffffffffffffffffffffffffffffffffffff1602179055505050610154565b6000815190506100c98161013d565b92915050565b600080604083850312156100e257600080fd5b60006100f0858286016100ba565b9250506020610101858286016100ba565b9150509250929050565b60006101168261011d565b9050919050565b600073ffffffffffffffffffffffffffffffffffffffff82169050919050565b6101468161010b565b811461015157600080fd5b50565b610439806101636000396000f3fe608060405234801561001057600080fd5b50600436106100415760003560e01c80632c3a03a714610046578063ef48eee614610064578063f851a44014610080575b600080fd5b61004e61009e565b60405161005b919061034e565b60405180910390f35b61007e6004803603810190610079919061024e565b6100c4565b005b6100886101d7565b60405161009591906102b7565b60405180910390f35b600160009054906101000a900473ffffffffffffffffffffffffffffffffffffffff1681565b600160009054906101000a900473ffffffffffffffffffffffffffffffffffffffff1673ffffffffffffffffffffffffffffffffffffffff166323b872dd3360008054906101000a900473ffffffffffffffffffffffffffffffffffffffff16856040518463ffffffff1660e01b8152600401610143939291906102d2565b602060405180830381600087803b15801561015d57600080fd5b505af1158015610171573d6000803e3d6000fd5b505050506040513d601f19601f820116820180604052508101906101959190610225565b507f78eaebe37a28490ff43ed0e95bdc47de1587156ac0069b652e1d2d9f42464e98338383426040516101cb9493929190610309565b60405180910390a15050565b60008054906101000a900473ffffffffffffffffffffffffffffffffffffffff1681565b60008151905061020a816103d5565b92915050565b60008135905061021f816103ec565b92915050565b60006020828403121561023757600080fd5b6000610245848285016101fb565b91505092915050565b6000806040838503121561026157600080fd5b600061026f85828601610210565b925050602061028085828601610210565b9150509250929050565b61029381610369565b82525050565b6102a2816103b1565b82525050565b6102b1816103a7565b82525050565b60006020820190506102cc600083018461028a565b92915050565b60006060820190506102e7600083018661028a565b6102f4602083018561028a565b61030160408301846102a8565b949350505050565b600060808201905061031e600083018761028a565b61032b60208301866102a8565b61033860408301856102a8565b61034560608301846102a8565b95945050505050565b60006020820190506103636000830184610299565b92915050565b600061037482610387565b9050919050565b60008115159050919050565b600073ffffffffffffffffffffffffffffffffffffffff82169050919050565b6000819050919050565b60006103bc826103c3565b9050919050565b60006103ce82610387565b9050919050565b6103de8161037b565b81146103e957600080fd5b50565b6103f5816103a7565b811461040057600080fd5b5056fea2646970667358221220c0878fe57eadc3384e8498099e0578ea4a18181e54e93e32024f506835955e0264736f6c63430008000033",
  "immutableReferences": {},
  "source": "// SPDX-License-Identifier: MIT\r\n\r\npragma solidity ^0.8.0;\r\n\r\nimport '@openzeppelin/contracts/token/ERC20/IERC20.sol';\r\n\r\ncontract PaymentProcessor {\r\n    address public admin;\r\n    IERC20 public ubi;\r\n\r\n    event PaymentDone(\r\n        address payer,\r\n        uint amount,\r\n        uint paymentId,\r\n        uint date\r\n    );\r\n\r\n    constructor(address adminAddress, address ubiAddress) public{\r\n        admin = adminAddress;\r\n        ubi = IERC20(ubiAddress);\r\n    }\r\n\r\n    function pay(uint amount, uint paymentId) external {\r\n        ubi.transferFrom(msg.sender, admin, amount);\r\n        emit PaymentDone(msg.sender, amount, paymentId, block.timestamp);\r\n    }\r\n}",
  "sourcePath": "D:/Nacho/Poh Ubi/web3-ecommerce-ubi/contracts/PaymentProcessor.sol",
  "compiler": {
    "name": "solc",
    "version": "0.8.0+commit.c7dfd78e.Emscripten.clang"
  },
  "schemaVersion": "3.4.1",
  "updatedAt": "2021-07-02T15:40:22.465Z",
  "networkType": "ethereum",
  "devdoc": {
    "kind": "dev",
    "methods": {},
    "version": 1
  },
  "userdoc": {
    "kind": "user",
    "methods": {},
    "version": 1
  }
}